{
  "contractName": "PIAICToken",
  "abi": [
    {
      "inputs": [],
      "stateMutability": "payable",
      "type": "constructor"
    },
    {
      "anonymous": false,
      "inputs": [
        {
          "indexed": true,
          "internalType": "address",
          "name": "owner",
          "type": "address"
        },
        {
          "indexed": true,
          "internalType": "address",
          "name": "spender",
          "type": "address"
        },
        {
          "indexed": false,
          "internalType": "uint256",
          "name": "value",
          "type": "uint256"
        }
      ],
      "name": "Approval",
      "type": "event"
    },
    {
      "anonymous": false,
      "inputs": [
        {
          "indexed": true,
          "internalType": "address",
          "name": "from",
          "type": "address"
        },
        {
          "indexed": true,
          "internalType": "address",
          "name": "to",
          "type": "address"
        },
        {
          "indexed": false,
          "internalType": "uint256",
          "name": "value",
          "type": "uint256"
        }
      ],
      "name": "Transfer",
      "type": "event"
    },
    {
      "stateMutability": "payable",
      "type": "fallback"
    },
    {
      "inputs": [],
      "name": "decimals",
      "outputs": [
        {
          "internalType": "uint8",
          "name": "",
          "type": "uint8"
        }
      ],
      "stateMutability": "view",
      "type": "function"
    },
    {
      "inputs": [],
      "name": "name",
      "outputs": [
        {
          "internalType": "string",
          "name": "",
          "type": "string"
        }
      ],
      "stateMutability": "view",
      "type": "function"
    },
    {
      "inputs": [],
      "name": "owner",
      "outputs": [
        {
          "internalType": "address",
          "name": "",
          "type": "address"
        }
      ],
      "stateMutability": "view",
      "type": "function"
    },
    {
      "inputs": [],
      "name": "symbol",
      "outputs": [
        {
          "internalType": "string",
          "name": "",
          "type": "string"
        }
      ],
      "stateMutability": "view",
      "type": "function"
    },
    {
      "stateMutability": "payable",
      "type": "receive"
    },
    {
      "inputs": [],
      "name": "totalSupply",
      "outputs": [
        {
          "internalType": "uint256",
          "name": "",
          "type": "uint256"
        }
      ],
      "stateMutability": "view",
      "type": "function"
    },
    {
      "inputs": [
        {
          "internalType": "address",
          "name": "account",
          "type": "address"
        }
      ],
      "name": "balanceOf",
      "outputs": [
        {
          "internalType": "uint256",
          "name": "",
          "type": "uint256"
        }
      ],
      "stateMutability": "view",
      "type": "function"
    },
    {
      "inputs": [
        {
          "internalType": "address",
          "name": "recipient",
          "type": "address"
        },
        {
          "internalType": "uint256",
          "name": "amount",
          "type": "uint256"
        }
      ],
      "name": "transfer",
      "outputs": [
        {
          "internalType": "bool",
          "name": "",
          "type": "bool"
        }
      ],
      "stateMutability": "nonpayable",
      "type": "function"
    },
    {
      "inputs": [
        {
          "internalType": "address",
          "name": "tokenOwner",
          "type": "address"
        },
        {
          "internalType": "address",
          "name": "spender",
          "type": "address"
        }
      ],
      "name": "allowance",
      "outputs": [
        {
          "internalType": "uint256",
          "name": "",
          "type": "uint256"
        }
      ],
      "stateMutability": "view",
      "type": "function"
    },
    {
      "inputs": [
        {
          "internalType": "address",
          "name": "spender",
          "type": "address"
        },
        {
          "internalType": "uint256",
          "name": "amount",
          "type": "uint256"
        }
      ],
      "name": "approve",
      "outputs": [
        {
          "internalType": "bool",
          "name": "",
          "type": "bool"
        }
      ],
      "stateMutability": "nonpayable",
      "type": "function"
    },
    {
      "inputs": [
        {
          "internalType": "address",
          "name": "tokenOwner",
          "type": "address"
        },
        {
          "internalType": "address",
          "name": "recipient",
          "type": "address"
        },
        {
          "internalType": "uint256",
          "name": "amount",
          "type": "uint256"
        }
      ],
      "name": "transferFrom",
      "outputs": [
        {
          "internalType": "bool",
          "name": "",
          "type": "bool"
        }
      ],
      "stateMutability": "nonpayable",
      "type": "function"
    },
    {
      "inputs": [
        {
          "internalType": "uint256",
          "name": "qty",
          "type": "uint256"
        }
      ],
      "name": "mint",
      "outputs": [
        {
          "internalType": "uint256",
          "name": "",
          "type": "uint256"
        }
      ],
      "stateMutability": "nonpayable",
      "type": "function"
    },
    {
      "inputs": [],
      "name": "ether_Send",
      "outputs": [],
      "stateMutability": "payable",
      "type": "function"
    }
  ],
  "bytecode": "0x60806040526040518060400160405280600981526020017f50494149432d4243430000000000000000000000000000000000000000000000815250600490805190602001906200005192919062000253565b506040518060400160405280600381526020017f4243430000000000000000000000000000000000000000000000000000000000815250600590805190602001906200009f92919062000253565b506012600660006101000a81548160ff021916908360ff16021790555033600960006101000a81548173ffffffffffffffffffffffffffffffffffffffff021916908373ffffffffffffffffffffffffffffffffffffffff160217905550662386f26fc1000060078190555033600360006101000a81548173ffffffffffffffffffffffffffffffffffffffff021916908373ffffffffffffffffffffffffffffffffffffffff160217905550678ac7230489e80000600281905550600254600080600360009054906101000a900473ffffffffffffffffffffffffffffffffffffffff1673ffffffffffffffffffffffffffffffffffffffff1673ffffffffffffffffffffffffffffffffffffffff16815260200190815260200160002081905550600360009054906101000a900473ffffffffffffffffffffffffffffffffffffffff1673ffffffffffffffffffffffffffffffffffffffff163073ffffffffffffffffffffffffffffffffffffffff167fddf252ad1be2c89b69c2b068fc378daa952ba7f163c4a11628f55a4df523b3ef60025460405162000245919062000314565b60405180910390a3620003a0565b82805462000261906200033b565b90600052602060002090601f016020900481019282620002855760008555620002d1565b82601f10620002a057805160ff1916838001178555620002d1565b82800160010185558215620002d1579182015b82811115620002d0578251825591602001919060010190620002b3565b5b509050620002e09190620002e4565b5090565b5b80821115620002ff576000816000905550600101620002e5565b5090565b6200030e8162000331565b82525050565b60006020820190506200032b600083018462000303565b92915050565b6000819050919050565b600060028204905060018216806200035457607f821691505b602082108114156200036b576200036a62000371565b5b50919050565b7f4e487b7100000000000000000000000000000000000000000000000000000000600052602260045260246000fd5b6116fc80620003b06000396000f3fe6080604052600436106100ab5760003560e01c80638da5cb5b116100645780638da5cb5b146101ec57806395d89b4114610217578063a0712d6814610242578063a9059cbb1461027f578063b25b5d8e146102bc578063dd62ed3e146102c6576100b2565b806306fdde03146100b4578063095ea7b3146100df57806318160ddd1461011c57806323b872dd14610147578063313ce5671461018457806370a08231146101af576100b2565b366100b257005b005b3480156100c057600080fd5b506100c9610303565b6040516100d69190611351565b60405180910390f35b3480156100eb57600080fd5b506101066004803603810190610101919061109b565b610391565b6040516101139190611336565b60405180910390f35b34801561012857600080fd5b50610131610568565b60405161013e9190611433565b60405180910390f35b34801561015357600080fd5b5061016e6004803603810190610169919061104c565b610572565b60405161017b9190611336565b60405180910390f35b34801561019057600080fd5b506101996108ba565b6040516101a6919061144e565b60405180910390f35b3480156101bb57600080fd5b506101d660048036038101906101d19190610fe7565b6108cd565b6040516101e39190611433565b60405180910390f35b3480156101f857600080fd5b50610201610915565b60405161020e919061131b565b60405180910390f35b34801561022357600080fd5b5061022c61093b565b6040516102399190611351565b60405180910390f35b34801561024e57600080fd5b50610269600480360381019061026491906110d7565b6109c9565b6040516102769190611433565b60405180910390f35b34801561028b57600080fd5b506102a660048036038101906102a1919061109b565b610af5565b6040516102b39190611336565b60405180910390f35b6102c4610de3565b005b3480156102d257600080fd5b506102ed60048036038101906102e89190611010565b610f36565b6040516102fa9190611433565b60405180910390f35b60048054610310906115c8565b80601f016020809104026020016040519081016040528092919081815260200182805461033c906115c8565b80156103895780601f1061035e57610100808354040283529160200191610389565b820191906000526020600020905b81548152906001019060200180831161036c57829003601f168201915b505050505081565b600080339050600073ffffffffffffffffffffffffffffffffffffffff168173ffffffffffffffffffffffffffffffffffffffff161415610407576040517f08c379a00000000000000000000000000000000000000000000000000000000081526004016103fe90611373565b60405180910390fd5b600073ffffffffffffffffffffffffffffffffffffffff168473ffffffffffffffffffffffffffffffffffffffff161415610477576040517f08c379a000000000000000000000000000000000000000000000000000000000815260040161046e90611373565b60405180910390fd5b82600160008373ffffffffffffffffffffffffffffffffffffffff1673ffffffffffffffffffffffffffffffffffffffff16815260200190815260200160002060008673ffffffffffffffffffffffffffffffffffffffff1673ffffffffffffffffffffffffffffffffffffffff168152602001908152602001600020819055508373ffffffffffffffffffffffffffffffffffffffff168173ffffffffffffffffffffffffffffffffffffffff167f8c5be1e5ebec7d5bd14f71427d1e84f3dd0314c0f7b2291e5b200ac8c7c3b925856040516105559190611433565b60405180910390a3600191505092915050565b6000600254905090565b6000803390506000600160008773ffffffffffffffffffffffffffffffffffffffff1673ffffffffffffffffffffffffffffffffffffffff16815260200190815260200160002060008373ffffffffffffffffffffffffffffffffffffffff1673ffffffffffffffffffffffffffffffffffffffff1681526020019081526020016000205490508381101561063c576040517f08c379a0000000000000000000000000000000000000000000000000000000008152600401610633906113d3565b60405180910390fd5b8381610648919061150c565b9050836000808873ffffffffffffffffffffffffffffffffffffffff1673ffffffffffffffffffffffffffffffffffffffff16815260200190815260200160002054610694919061150c565b6000808873ffffffffffffffffffffffffffffffffffffffff1673ffffffffffffffffffffffffffffffffffffffff16815260200190815260200160002081905550836000808773ffffffffffffffffffffffffffffffffffffffff1673ffffffffffffffffffffffffffffffffffffffff168152602001908152602001600020546107209190611485565b6000808773ffffffffffffffffffffffffffffffffffffffff1673ffffffffffffffffffffffffffffffffffffffff168152602001908152602001600020819055508473ffffffffffffffffffffffffffffffffffffffff168673ffffffffffffffffffffffffffffffffffffffff167fddf252ad1be2c89b69c2b068fc378daa952ba7f163c4a11628f55a4df523b3ef866040516107bf9190611433565b60405180910390a380600160008873ffffffffffffffffffffffffffffffffffffffff1673ffffffffffffffffffffffffffffffffffffffff16815260200190815260200160002060008473ffffffffffffffffffffffffffffffffffffffff1673ffffffffffffffffffffffffffffffffffffffff168152602001908152602001600020819055508173ffffffffffffffffffffffffffffffffffffffff168673ffffffffffffffffffffffffffffffffffffffff167f8c5be1e5ebec7d5bd14f71427d1e84f3dd0314c0f7b2291e5b200ac8c7c3b925866040516108a59190611433565b60405180910390a36001925050509392505050565b600660009054906101000a900460ff1681565b60008060008373ffffffffffffffffffffffffffffffffffffffff1673ffffffffffffffffffffffffffffffffffffffff168152602001908152602001600020549050919050565b600360009054906101000a900473ffffffffffffffffffffffffffffffffffffffff1681565b60058054610948906115c8565b80601f0160208091040260200160405190810160405280929190818152602001828054610974906115c8565b80156109c15780601f10610996576101008083540402835291602001916109c1565b820191906000526020600020905b8154815290600101906020018083116109a457829003601f168201915b505050505081565b6000600360009054906101000a900473ffffffffffffffffffffffffffffffffffffffff1673ffffffffffffffffffffffffffffffffffffffff163373ffffffffffffffffffffffffffffffffffffffff1614610a5b576040517f08c379a0000000000000000000000000000000000000000000000000000000008152600401610a52906113f3565b60405180910390fd5b8160026000828254610a6d9190611485565b9250508190555081600080600360009054906101000a900473ffffffffffffffffffffffffffffffffffffffff1673ffffffffffffffffffffffffffffffffffffffff1673ffffffffffffffffffffffffffffffffffffffff1681526020019081526020016000206000828254610ae49190611485565b925050819055506002549050919050565b600080339050600073ffffffffffffffffffffffffffffffffffffffff168173ffffffffffffffffffffffffffffffffffffffff161415610b6b576040517f08c379a0000000000000000000000000000000000000000000000000000000008152600401610b6290611393565b60405180910390fd5b600073ffffffffffffffffffffffffffffffffffffffff168473ffffffffffffffffffffffffffffffffffffffff161415610bdb576040517f08c379a0000000000000000000000000000000000000000000000000000000008152600401610bd290611393565b60405180910390fd5b826000808373ffffffffffffffffffffffffffffffffffffffff1673ffffffffffffffffffffffffffffffffffffffff1681526020019081526020016000205411610c5b576040517f08c379a0000000000000000000000000000000000000000000000000000000008152600401610c5290611413565b60405180910390fd5b826000808373ffffffffffffffffffffffffffffffffffffffff1673ffffffffffffffffffffffffffffffffffffffff16815260200190815260200160002054610ca5919061150c565b6000808373ffffffffffffffffffffffffffffffffffffffff1673ffffffffffffffffffffffffffffffffffffffff16815260200190815260200160002081905550826000808673ffffffffffffffffffffffffffffffffffffffff1673ffffffffffffffffffffffffffffffffffffffff16815260200190815260200160002054610d319190611485565b6000808673ffffffffffffffffffffffffffffffffffffffff1673ffffffffffffffffffffffffffffffffffffffff168152602001908152602001600020819055508373ffffffffffffffffffffffffffffffffffffffff168173ffffffffffffffffffffffffffffffffffffffff167fddf252ad1be2c89b69c2b068fc378daa952ba7f163c4a11628f55a4df523b3ef85604051610dd09190611433565b60405180910390a3600191505092915050565b6000349050600360009054906101000a900473ffffffffffffffffffffffffffffffffffffffff1673ffffffffffffffffffffffffffffffffffffffff166108fc829081150290604051600060405180830381858888f19350505050158015610e50573d6000803e3d6000fd5b508060026000828254610e639190611485565b9250508190555060008111610ead576040517f08c379a0000000000000000000000000000000000000000000000000000000008152600401610ea4906113b3565b60405180910390fd5b60075481610ebb91906114db565b6008819055506008546000803373ffffffffffffffffffffffffffffffffffffffff1673ffffffffffffffffffffffffffffffffffffffff1681526020019081526020016000206000828254610f119190611485565b9250508190555060085460026000828254610f2c919061150c565b9250508190555050565b6000600160008473ffffffffffffffffffffffffffffffffffffffff1673ffffffffffffffffffffffffffffffffffffffff16815260200190815260200160002060008373ffffffffffffffffffffffffffffffffffffffff1673ffffffffffffffffffffffffffffffffffffffff16815260200190815260200160002054905092915050565b600081359050610fcc81611698565b92915050565b600081359050610fe1816116af565b92915050565b600060208284031215610ff957600080fd5b600061100784828501610fbd565b91505092915050565b6000806040838503121561102357600080fd5b600061103185828601610fbd565b925050602061104285828601610fbd565b9150509250929050565b60008060006060848603121561106157600080fd5b600061106f86828701610fbd565b935050602061108086828701610fbd565b925050604061109186828701610fd2565b9150509250925092565b600080604083850312156110ae57600080fd5b60006110bc85828601610fbd565b92505060206110cd85828601610fd2565b9150509250929050565b6000602082840312156110e957600080fd5b60006110f784828501610fd2565b91505092915050565b61110981611540565b82525050565b61111881611552565b82525050565b600061112982611469565b6111338185611474565b9350611143818560208601611595565b61114c81611687565b840191505092915050565b6000611164601983611474565b91507f617070726f76652066726f6d207a65726f2061646472657373000000000000006000830152602082019050919050565b60006111a4601a83611474565b91507f7472616e736665722066726f6d207a65726f20616464726573730000000000006000830152602082019050919050565b60006111e4601b83611474565b91507f796f75206e65656420746f2073656e6420736f6d6520657468657200000000006000830152602082019050919050565b6000611224602283611474565b91507f207472616e7366657220616d6f756e74206578636565647320616c6c6f77616e60008301527f63650000000000000000000000000000000000000000000000000000000000006020830152604082019050919050565b600061128a602083611474565b91507f6f6e6c792061646d696e2063616e2072756e20746869732066756e6374696f6e6000830152602082019050919050565b60006112ca602083611474565b91507f7472616e73666572206163636f756e74206578636565642062616c616e6365736000830152602082019050919050565b6113068161157e565b82525050565b61131581611588565b82525050565b60006020820190506113306000830184611100565b92915050565b600060208201905061134b600083018461110f565b92915050565b6000602082019050818103600083015261136b818461111e565b905092915050565b6000602082019050818103600083015261138c81611157565b9050919050565b600060208201905081810360008301526113ac81611197565b9050919050565b600060208201905081810360008301526113cc816111d7565b9050919050565b600060208201905081810360008301526113ec81611217565b9050919050565b6000602082019050818103600083015261140c8161127d565b9050919050565b6000602082019050818103600083015261142c816112bd565b9050919050565b600060208201905061144860008301846112fd565b92915050565b6000602082019050611463600083018461130c565b92915050565b600081519050919050565b600082825260208201905092915050565b60006114908261157e565b915061149b8361157e565b9250827fffffffffffffffffffffffffffffffffffffffffffffffffffffffffffffffff038211156114d0576114cf6115fa565b5b828201905092915050565b60006114e68261157e565b91506114f18361157e565b92508261150157611500611629565b5b828204905092915050565b60006115178261157e565b91506115228361157e565b925082821015611535576115346115fa565b5b828203905092915050565b600061154b8261155e565b9050919050565b60008115159050919050565b600073ffffffffffffffffffffffffffffffffffffffff82169050919050565b6000819050919050565b600060ff82169050919050565b60005b838110156115b3578082015181840152602081019050611598565b838111156115c2576000848401525b50505050565b600060028204905060018216806115e057607f821691505b602082108114156115f4576115f3611658565b5b50919050565b7f4e487b7100000000000000000000000000000000000000000000000000000000600052601160045260246000fd5b7f4e487b7100000000000000000000000000000000000000000000000000000000600052601260045260246000fd5b7f4e487b7100000000000000000000000000000000000000000000000000000000600052602260045260246000fd5b6000601f19601f8301169050919050565b6116a181611540565b81146116ac57600080fd5b50565b6116b88161157e565b81146116c357600080fd5b5056fea26469706673582212200fb3cac3b322962d5eda8e02544742bf54c31ea50963f57acd851edafeb438ce64736f6c63430008000033",
  "immutableReferences": {},
  "source": "pragma solidity ^0.8.0;\r\ninterface IERC20 {\r\n\r\n    function totalSupply() external view returns (uint256);\r\n\r\n\r\n    function balanceOf(address account) external view returns (uint256);\r\n\r\n    function transfer(address recipient, uint256 amount) external returns (bool);\r\n\r\n    function allowance(address owner, address spender) external view returns (uint256);\r\n\r\n\r\n    function approve(address spender, uint256 amount) external returns (bool);\r\n\r\n\r\n    function transferFrom( address sender, address recipient, uint256 amount ) external returns (bool);\r\n\r\n\r\n    event Transfer(address indexed from, address indexed to, uint256 value);\r\n    event Approval(address indexed owner, address indexed spender, uint256 value);\r\n\r\n}\r\ncontract PIAICToken is IERC20{\r\n    mapping(address => uint256) private _balances;\r\n//           owner             spender    allowance\r\n    mapping(address => mapping(address => uint256)) private _allowances;\r\n\r\n    uint256 private _totalSupply;\r\n    address public owner;\r\n\r\n    string  public name;\r\n    string public symbol;\r\n    uint8 public decimals;\r\n    uint256 private Price;\r\n    uint256 private Send_token;\r\n    address private ETH_Sender;\r\n\r\n    \r\n    constructor() public payable {\r\n        name = \"PIAIC-BCC\";\r\n        symbol = \"BCC\";\r\n        decimals=18;\r\n        ETH_Sender=msg.sender;\r\n        Price= 0.01 ether;\r\n        owner= msg.sender;\r\n        _totalSupply=10 ether;\r\n        _balances[owner]=_totalSupply;\r\n        emit Transfer(address(this),owner,_totalSupply);\r\n    }\r\n    \r\n    function totalSupply() public view override returns (uint256) {\r\n        return _totalSupply;\r\n    }\r\n    \r\n    function balanceOf(address account) public view override returns (uint256) {\r\n        return _balances[account];\r\n    }\r\n    function transfer(address recipient, uint256 amount) public virtual override returns (bool) {\r\n        address sender=msg.sender;\r\n        require (sender != address(0),\"transfer from zero address\");\r\n        require (recipient !=address(0),\"transfer from zero address\");\r\n        require (_balances[sender] > amount,\"transfer account exceed balances\");\r\n        _balances[sender]=_balances[sender]-amount;\r\n        _balances[recipient]=_balances[recipient]+amount;\r\n        \r\n        emit Transfer(sender, recipient, amount);\r\n        return true;\r\n    }\r\n    function allowance(address  tokenOwner, address spender) public view virtual override returns (uint256){\r\n        return _allowances[tokenOwner][spender];\r\n        \r\n    }\r\n    function approve(address spender, uint256 amount) public virtual override returns (bool) {\r\n        address tokenOwner=msg.sender;\r\n        require (tokenOwner!=address(0), \"approve from zero address\");\r\n        require (spender!=address(0), \"approve from zero address\");\r\n        _allowances[tokenOwner][spender]=amount;\r\n        emit Approval(tokenOwner, spender, amount);\r\n        return true;\r\n     }\r\n     \r\n    function transferFrom(address tokenOwner,address recipient,uint256 amount) public virtual override returns (bool) {\r\n        \r\n         address spender=msg.sender;\r\n         uint256 _allowance = _allowances[tokenOwner][spender];\r\n         require(_allowance >= amount, \" transfer amount exceeds allowance\");\r\n         _allowance=_allowance-amount;\r\n         _balances[tokenOwner]=_balances[tokenOwner]-amount;\r\n         _balances[recipient]=_balances[recipient]+amount;\r\n         emit Transfer(tokenOwner,recipient,amount);\r\n         _allowances[tokenOwner][spender]=_allowance;\r\n         emit Approval(tokenOwner,spender,amount);\r\n         return true;\r\n    }\r\n \r\n    function mint(uint256 qty) public  returns(uint256){\r\n        require(msg.sender== owner,\"only admin can run this function\");\r\n        _totalSupply += qty;\r\n        _balances[owner] +=qty;\r\n        return _totalSupply;\r\n    }\r\n    fallback() external payable{\r\n    }\r\n    receive() external payable{\r\n        \r\n    }\r\n    function ether_Send () public payable {\r\n        uint256 Recive_ETH = msg.value;\r\n        payable(owner).transfer( Recive_ETH);\r\n        _totalSupply += ( Recive_ETH);\r\n        require( Recive_ETH > 0,\"you need to send some ether\");\r\n        Send_token =  Recive_ETH/ Price;\r\n        _balances[msg.sender] += Send_token;\r\n        _totalSupply -=(Send_token);\r\n    }\r\n    \r\n}\r\n\r\n\r\n\r\n\r\n\r\n\r\n\r\n\r\n\r\n\r\n\r\n",
  "sourcePath": "C:\\Users\\dell\\Documents\\GitHub\\BCCERC20\\contracts\\PIAICToken.sol",
  "compiler": {
    "name": "solc",
    "version": "0.8.0+commit.c7dfd78e.Emscripten.clang"
  },
  "schemaVersion": "3.4.3",
  "updatedAt": "2021-10-21T10:54:01.004Z",
  "devdoc": {
    "kind": "dev",
    "methods": {},
    "version": 1
  },
  "userdoc": {
    "kind": "user",
    "methods": {},
    "version": 1
  }
}