{
  "contractName": "PIAICToken",
  "abi": [
    {
      "inputs": [],
      "stateMutability": "payable",
      "type": "constructor"
    },
    {
      "anonymous": false,
      "inputs": [
        {
          "indexed": true,
          "internalType": "address",
          "name": "owner",
          "type": "address"
        },
        {
          "indexed": true,
          "internalType": "address",
          "name": "spender",
          "type": "address"
        },
        {
          "indexed": false,
          "internalType": "uint256",
          "name": "value",
          "type": "uint256"
        }
      ],
      "name": "Approval",
      "type": "event"
    },
    {
      "anonymous": false,
      "inputs": [
        {
          "indexed": true,
          "internalType": "address",
          "name": "from",
          "type": "address"
        },
        {
          "indexed": true,
          "internalType": "address",
          "name": "to",
          "type": "address"
        },
        {
          "indexed": false,
          "internalType": "uint256",
          "name": "value",
          "type": "uint256"
        }
      ],
      "name": "Transfer",
      "type": "event"
    },
    {
      "inputs": [],
      "name": "cap",
      "outputs": [
        {
          "internalType": "uint256",
          "name": "",
          "type": "uint256"
        }
      ],
      "stateMutability": "view",
      "type": "function"
    },
    {
      "inputs": [],
      "name": "decimals",
      "outputs": [
        {
          "internalType": "uint8",
          "name": "",
          "type": "uint8"
        }
      ],
      "stateMutability": "view",
      "type": "function"
    },
    {
      "inputs": [],
      "name": "name",
      "outputs": [
        {
          "internalType": "string",
          "name": "",
          "type": "string"
        }
      ],
      "stateMutability": "view",
      "type": "function"
    },
    {
      "inputs": [],
      "name": "owner",
      "outputs": [
        {
          "internalType": "address",
          "name": "",
          "type": "address"
        }
      ],
      "stateMutability": "view",
      "type": "function"
    },
    {
      "inputs": [],
      "name": "symbol",
      "outputs": [
        {
          "internalType": "string",
          "name": "",
          "type": "string"
        }
      ],
      "stateMutability": "view",
      "type": "function"
    },
    {
      "inputs": [],
      "name": "totalSupply",
      "outputs": [
        {
          "internalType": "uint256",
          "name": "",
          "type": "uint256"
        }
      ],
      "stateMutability": "view",
      "type": "function"
    },
    {
      "inputs": [
        {
          "internalType": "address",
          "name": "account",
          "type": "address"
        }
      ],
      "name": "balanceOf",
      "outputs": [
        {
          "internalType": "uint256",
          "name": "",
          "type": "uint256"
        }
      ],
      "stateMutability": "view",
      "type": "function"
    },
    {
      "inputs": [
        {
          "internalType": "address",
          "name": "recipient",
          "type": "address"
        },
        {
          "internalType": "uint256",
          "name": "amount",
          "type": "uint256"
        }
      ],
      "name": "transfer",
      "outputs": [
        {
          "internalType": "bool",
          "name": "",
          "type": "bool"
        }
      ],
      "stateMutability": "nonpayable",
      "type": "function"
    },
    {
      "inputs": [
        {
          "internalType": "address",
          "name": "tokenOwner",
          "type": "address"
        },
        {
          "internalType": "address",
          "name": "spender",
          "type": "address"
        }
      ],
      "name": "allowance",
      "outputs": [
        {
          "internalType": "uint256",
          "name": "",
          "type": "uint256"
        }
      ],
      "stateMutability": "view",
      "type": "function"
    },
    {
      "inputs": [
        {
          "internalType": "address",
          "name": "spender",
          "type": "address"
        },
        {
          "internalType": "uint256",
          "name": "amount",
          "type": "uint256"
        }
      ],
      "name": "approve",
      "outputs": [
        {
          "internalType": "bool",
          "name": "",
          "type": "bool"
        }
      ],
      "stateMutability": "nonpayable",
      "type": "function"
    },
    {
      "inputs": [
        {
          "internalType": "address",
          "name": "tokenOwner",
          "type": "address"
        },
        {
          "internalType": "address",
          "name": "recipient",
          "type": "address"
        },
        {
          "internalType": "uint256",
          "name": "amount",
          "type": "uint256"
        }
      ],
      "name": "transferFrom",
      "outputs": [
        {
          "internalType": "bool",
          "name": "",
          "type": "bool"
        }
      ],
      "stateMutability": "nonpayable",
      "type": "function"
    },
    {
      "inputs": [
        {
          "internalType": "uint256",
          "name": "qty",
          "type": "uint256"
        }
      ],
      "name": "mint",
      "outputs": [
        {
          "internalType": "uint256",
          "name": "",
          "type": "uint256"
        }
      ],
      "stateMutability": "nonpayable",
      "type": "function"
    }
  ],
  "bytecode": "0x60806040526040518060400160405280600981526020017f50494149432d42434300000000000000000000000000000000000000000000008152506005908051906020019062000051929190620002b3565b506040518060400160405280600381526020017f4243430000000000000000000000000000000000000000000000000000000000815250600690805190602001906200009f929190620002b3565b506012600760006101000a81548160ff021916908360ff16021790555033600a60006101000a81548173ffffffffffffffffffffffffffffffffffffffff021916908373ffffffffffffffffffffffffffffffffffffffff160217905550662386f26fc1000060088190555033600460006101000a81548173ffffffffffffffffffffffffffffffffffffffff021916908373ffffffffffffffffffffffffffffffffffffffff160217905550600760009054906101000a900460ff16600a6200016a9190620003ec565b620f42406200017a919062000529565b6003819055506200019d60026003546200029b60201b62000e9a1790919060201c565b600b81905550600354600080600460009054906101000a900473ffffffffffffffffffffffffffffffffffffffff1673ffffffffffffffffffffffffffffffffffffffff1673ffffffffffffffffffffffffffffffffffffffff16815260200190815260200160002081905550600460009054906101000a900473ffffffffffffffffffffffffffffffffffffffff1673ffffffffffffffffffffffffffffffffffffffff163073ffffffffffffffffffffffffffffffffffffffff167fddf252ad1be2c89b69c2b068fc378daa952ba7f163c4a11628f55a4df523b3ef6003546040516200028d919062000374565b60405180910390a362000642565b60008183620002ab919062000529565b905092915050565b828054620002c190620005a1565b90600052602060002090601f016020900481019282620002e5576000855562000331565b82601f106200030057805160ff191683800117855562000331565b8280016001018555821562000331579182015b828111156200033057825182559160200191906001019062000313565b5b50905062000340919062000344565b5090565b5b808211156200035f57600081600090555060010162000345565b5090565b6200036e816200058a565b82525050565b60006020820190506200038b600083018462000363565b92915050565b6000808291508390505b6001851115620003e357808604811115620003bb57620003ba620005d7565b5b6001851615620003cb5780820291505b8081029050620003db8562000635565b94506200039b565b94509492505050565b6000620003f9826200058a565b9150620004068362000594565b9250620004357fffffffffffffffffffffffffffffffffffffffffffffffffffffffffffffffff84846200043d565b905092915050565b6000826200044f576001905062000522565b816200045f576000905062000522565b81600181146200047857600281146200048357620004b9565b600191505062000522565b60ff841115620004985762000497620005d7565b5b8360020a915084821115620004b257620004b1620005d7565b5b5062000522565b5060208310610133831016604e8410600b8410161715620004f35782820a905083811115620004ed57620004ec620005d7565b5b62000522565b62000502848484600162000391565b925090508184048111156200051c576200051b620005d7565b5b81810290505b9392505050565b600062000536826200058a565b915062000543836200058a565b9250817fffffffffffffffffffffffffffffffffffffffffffffffffffffffffffffffff04831182151516156200057f576200057e620005d7565b5b828202905092915050565b6000819050919050565b600060ff82169050919050565b60006002820490506001821680620005ba57607f821691505b60208210811415620005d157620005d062000606565b5b50919050565b7f4e487b7100000000000000000000000000000000000000000000000000000000600052601160045260246000fd5b7f4e487b7100000000000000000000000000000000000000000000000000000000600052602260045260246000fd5b60008160011c9050919050565b61165f80620006526000396000f3fe608060405234801561001057600080fd5b50600436106100b45760003560e01c806370a082311161007157806370a08231146101915780638da5cb5b146101c157806395d89b41146101df578063a0712d68146101fd578063a9059cbb1461022d578063dd62ed3e1461025d576100b4565b806306fdde03146100b9578063095ea7b3146100d757806318160ddd1461010757806323b872dd14610125578063313ce56714610155578063355274ea14610173575b600080fd5b6100c161028d565b6040516100ce919061129a565b60405180910390f35b6100f160048036038101906100ec9190610fa4565b61031b565b6040516100fe919061127f565b60405180910390f35b61010f6104f2565b60405161011c919061139c565b60405180910390f35b61013f600480360381019061013a9190610f55565b6104fc565b60405161014c919061127f565b60405180910390f35b61015d610844565b60405161016a91906113b7565b60405180910390f35b61017b610857565b604051610188919061139c565b60405180910390f35b6101ab60048036038101906101a69190610ef0565b61085d565b6040516101b8919061139c565b60405180910390f35b6101c96108a5565b6040516101d69190611264565b60405180910390f35b6101e76108cb565b6040516101f4919061129a565b60405180910390f35b61021760048036038101906102129190610fe0565b610959565b604051610224919061139c565b60405180910390f35b61024760048036038101906102429190610fa4565b610b25565b604051610254919061127f565b60405180910390f35b61027760048036038101906102729190610f19565b610e13565b604051610284919061139c565b60405180910390f35b6005805461029a9061155a565b80601f01602080910402602001604051908101604052809291908181526020018280546102c69061155a565b80156103135780601f106102e857610100808354040283529160200191610313565b820191906000526020600020905b8154815290600101906020018083116102f657829003601f168201915b505050505081565b600080339050600073ffffffffffffffffffffffffffffffffffffffff168173ffffffffffffffffffffffffffffffffffffffff161415610391576040517f08c379a0000000000000000000000000000000000000000000000000000000008152600401610388906112bc565b60405180910390fd5b600073ffffffffffffffffffffffffffffffffffffffff168473ffffffffffffffffffffffffffffffffffffffff161415610401576040517f08c379a00000000000000000000000000000000000000000000000000000000081526004016103f8906112bc565b60405180910390fd5b82600160008373ffffffffffffffffffffffffffffffffffffffff1673ffffffffffffffffffffffffffffffffffffffff16815260200190815260200160002060008673ffffffffffffffffffffffffffffffffffffffff1673ffffffffffffffffffffffffffffffffffffffff168152602001908152602001600020819055508373ffffffffffffffffffffffffffffffffffffffff168173ffffffffffffffffffffffffffffffffffffffff167f8c5be1e5ebec7d5bd14f71427d1e84f3dd0314c0f7b2291e5b200ac8c7c3b925856040516104df919061139c565b60405180910390a3600191505092915050565b6000600354905090565b6000803390506000600160008773ffffffffffffffffffffffffffffffffffffffff1673ffffffffffffffffffffffffffffffffffffffff16815260200190815260200160002060008373ffffffffffffffffffffffffffffffffffffffff1673ffffffffffffffffffffffffffffffffffffffff168152602001908152602001600020549050838110156105c6576040517f08c379a00000000000000000000000000000000000000000000000000000000081526004016105bd9061131c565b60405180910390fd5b83816105d2919061149e565b9050836000808873ffffffffffffffffffffffffffffffffffffffff1673ffffffffffffffffffffffffffffffffffffffff1681526020019081526020016000205461061e919061149e565b6000808873ffffffffffffffffffffffffffffffffffffffff1673ffffffffffffffffffffffffffffffffffffffff16815260200190815260200160002081905550836000808773ffffffffffffffffffffffffffffffffffffffff1673ffffffffffffffffffffffffffffffffffffffff168152602001908152602001600020546106aa91906113ee565b6000808773ffffffffffffffffffffffffffffffffffffffff1673ffffffffffffffffffffffffffffffffffffffff168152602001908152602001600020819055508473ffffffffffffffffffffffffffffffffffffffff168673ffffffffffffffffffffffffffffffffffffffff167fddf252ad1be2c89b69c2b068fc378daa952ba7f163c4a11628f55a4df523b3ef86604051610749919061139c565b60405180910390a380600160008873ffffffffffffffffffffffffffffffffffffffff1673ffffffffffffffffffffffffffffffffffffffff16815260200190815260200160002060008473ffffffffffffffffffffffffffffffffffffffff1673ffffffffffffffffffffffffffffffffffffffff168152602001908152602001600020819055508173ffffffffffffffffffffffffffffffffffffffff168673ffffffffffffffffffffffffffffffffffffffff167f8c5be1e5ebec7d5bd14f71427d1e84f3dd0314c0f7b2291e5b200ac8c7c3b9258660405161082f919061139c565b60405180910390a36001925050509392505050565b600760009054906101000a900460ff1681565b600b5481565b60008060008373ffffffffffffffffffffffffffffffffffffffff1673ffffffffffffffffffffffffffffffffffffffff168152602001908152602001600020549050919050565b600460009054906101000a900473ffffffffffffffffffffffffffffffffffffffff1681565b600680546108d89061155a565b80601f01602080910402602001604051908101604052809291908181526020018280546109049061155a565b80156109515780601f1061092657610100808354040283529160200191610951565b820191906000526020600020905b81548152906001019060200180831161093457829003601f168201915b505050505081565b6000600460009054906101000a900473ffffffffffffffffffffffffffffffffffffffff1673ffffffffffffffffffffffffffffffffffffffff163373ffffffffffffffffffffffffffffffffffffffff16146109eb576040517f08c379a00000000000000000000000000000000000000000000000000000000081526004016109e29061135c565b60405180910390fd5b60008211610a2e576040517f08c379a0000000000000000000000000000000000000000000000000000000008152600401610a25906112fc565b60405180910390fd5b600b54610a4b83610a3d6104f2565b610eb090919063ffffffff16565b10610a8b576040517f08c379a0000000000000000000000000000000000000000000000000000000008152600401610a829061133c565b60405180910390fd5b8160036000828254610a9d91906113ee565b9250508190555081600080600460009054906101000a900473ffffffffffffffffffffffffffffffffffffffff1673ffffffffffffffffffffffffffffffffffffffff1673ffffffffffffffffffffffffffffffffffffffff1681526020019081526020016000206000828254610b1491906113ee565b925050819055506003549050919050565b600080339050600073ffffffffffffffffffffffffffffffffffffffff168173ffffffffffffffffffffffffffffffffffffffff161415610b9b576040517f08c379a0000000000000000000000000000000000000000000000000000000008152600401610b92906112dc565b60405180910390fd5b600073ffffffffffffffffffffffffffffffffffffffff168473ffffffffffffffffffffffffffffffffffffffff161415610c0b576040517f08c379a0000000000000000000000000000000000000000000000000000000008152600401610c02906112dc565b60405180910390fd5b826000808373ffffffffffffffffffffffffffffffffffffffff1673ffffffffffffffffffffffffffffffffffffffff1681526020019081526020016000205411610c8b576040517f08c379a0000000000000000000000000000000000000000000000000000000008152600401610c829061137c565b60405180910390fd5b826000808373ffffffffffffffffffffffffffffffffffffffff1673ffffffffffffffffffffffffffffffffffffffff16815260200190815260200160002054610cd5919061149e565b6000808373ffffffffffffffffffffffffffffffffffffffff1673ffffffffffffffffffffffffffffffffffffffff16815260200190815260200160002081905550826000808673ffffffffffffffffffffffffffffffffffffffff1673ffffffffffffffffffffffffffffffffffffffff16815260200190815260200160002054610d6191906113ee565b6000808673ffffffffffffffffffffffffffffffffffffffff1673ffffffffffffffffffffffffffffffffffffffff168152602001908152602001600020819055508373ffffffffffffffffffffffffffffffffffffffff168173ffffffffffffffffffffffffffffffffffffffff167fddf252ad1be2c89b69c2b068fc378daa952ba7f163c4a11628f55a4df523b3ef85604051610e00919061139c565b60405180910390a3600191505092915050565b6000600160008473ffffffffffffffffffffffffffffffffffffffff1673ffffffffffffffffffffffffffffffffffffffff16815260200190815260200160002060008373ffffffffffffffffffffffffffffffffffffffff1673ffffffffffffffffffffffffffffffffffffffff16815260200190815260200160002054905092915050565b60008183610ea89190611444565b905092915050565b60008183610ebe91906113ee565b905092915050565b600081359050610ed5816115fb565b92915050565b600081359050610eea81611612565b92915050565b600060208284031215610f0257600080fd5b6000610f1084828501610ec6565b91505092915050565b60008060408385031215610f2c57600080fd5b6000610f3a85828601610ec6565b9250506020610f4b85828601610ec6565b9150509250929050565b600080600060608486031215610f6a57600080fd5b6000610f7886828701610ec6565b9350506020610f8986828701610ec6565b9250506040610f9a86828701610edb565b9150509250925092565b60008060408385031215610fb757600080fd5b6000610fc585828601610ec6565b9250506020610fd685828601610edb565b9150509250929050565b600060208284031215610ff257600080fd5b600061100084828501610edb565b91505092915050565b611012816114d2565b82525050565b611021816114e4565b82525050565b6000611032826113d2565b61103c81856113dd565b935061104c818560208601611527565b611055816115ea565b840191505092915050565b600061106d6019836113dd565b91507f617070726f76652066726f6d207a65726f2061646472657373000000000000006000830152602082019050919050565b60006110ad601a836113dd565b91507f7472616e736665722066726f6d207a65726f20616464726573730000000000006000830152602082019050919050565b60006110ed600e836113dd565b91507f496e76616c696420616d6f756e740000000000000000000000000000000000006000830152602082019050919050565b600061112d6022836113dd565b91507f207472616e7366657220616d6f756e74206578636565647320616c6c6f77616e60008301527f63650000000000000000000000000000000000000000000000000000000000006020830152604082019050919050565b60006111936010836113dd565b91507f4f7665726c697374656420546f6b656e000000000000000000000000000000006000830152602082019050919050565b60006111d36020836113dd565b91507f6f6e6c792061646d696e2063616e2072756e20746869732066756e6374696f6e6000830152602082019050919050565b60006112136020836113dd565b91507f7472616e73666572206163636f756e74206578636565642062616c616e6365736000830152602082019050919050565b61124f81611510565b82525050565b61125e8161151a565b82525050565b60006020820190506112796000830184611009565b92915050565b60006020820190506112946000830184611018565b92915050565b600060208201905081810360008301526112b48184611027565b905092915050565b600060208201905081810360008301526112d581611060565b9050919050565b600060208201905081810360008301526112f5816110a0565b9050919050565b60006020820190508181036000830152611315816110e0565b9050919050565b6000602082019050818103600083015261133581611120565b9050919050565b6000602082019050818103600083015261135581611186565b9050919050565b60006020820190508181036000830152611375816111c6565b9050919050565b6000602082019050818103600083015261139581611206565b9050919050565b60006020820190506113b16000830184611246565b92915050565b60006020820190506113cc6000830184611255565b92915050565b600081519050919050565b600082825260208201905092915050565b60006113f982611510565b915061140483611510565b9250827fffffffffffffffffffffffffffffffffffffffffffffffffffffffffffffffff038211156114395761143861158c565b5b828201905092915050565b600061144f82611510565b915061145a83611510565b9250817fffffffffffffffffffffffffffffffffffffffffffffffffffffffffffffffff04831182151516156114935761149261158c565b5b828202905092915050565b60006114a982611510565b91506114b483611510565b9250828210156114c7576114c661158c565b5b828203905092915050565b60006114dd826114f0565b9050919050565b60008115159050919050565b600073ffffffffffffffffffffffffffffffffffffffff82169050919050565b6000819050919050565b600060ff82169050919050565b60005b8381101561154557808201518184015260208101905061152a565b83811115611554576000848401525b50505050565b6000600282049050600182168061157257607f821691505b60208210811415611586576115856115bb565b5b50919050565b7f4e487b7100000000000000000000000000000000000000000000000000000000600052601160045260246000fd5b7f4e487b7100000000000000000000000000000000000000000000000000000000600052602260045260246000fd5b6000601f19601f8301169050919050565b611604816114d2565b811461160f57600080fd5b50565b61161b81611510565b811461162657600080fd5b5056fea2646970667358221220d166c2eb292a4e716e113375755217de3a6f1b14bc042aec9800de9131a0054b64736f6c63430008000033",
  "immutableReferences": {},
  "source": "pragma solidity ^0.8.0;\r\nimport \"./SafeMath.sol\";\r\ninterface IERC20 {\r\n\r\n    function totalSupply() external view returns (uint256);\r\n\r\n\r\n    function balanceOf(address account) external view returns (uint256);\r\n\r\n    function transfer(address recipient, uint256 amount) external returns (bool);\r\n\r\n    function allowance(address owner, address spender) external view returns (uint256);\r\n\r\n\r\n    function approve(address spender, uint256 amount) external returns (bool);\r\n\r\n\r\n    function transferFrom( address sender, address recipient, uint256 amount ) external returns (bool);\r\n\r\n\r\n    event Transfer(address indexed from, address indexed to, uint256 value);\r\n    event Approval(address indexed owner, address indexed spender, uint256 value);\r\n\r\n}\r\ncontract PIAICToken is IERC20{\r\n    mapping(address => uint256) private _balances;\r\n//           owner             spender    allowance\r\n    mapping(address => mapping(address => uint256)) private _allowances;\r\n    mapping(address => uint256) private _enabelTransfer;\r\n\r\n    uint256 private _totalSupply;\r\n    address public owner;\r\n\r\n    string  public name;\r\n    string public symbol;\r\n    uint8 public decimals;\r\n    uint256 private Price;\r\n    uint256 private Send_token;\r\n    address private ETH_Sender;\r\n    uint public cap;\r\n    using SafeMath for uint;\r\n\r\n    \r\n    constructor() public payable {\r\n        name = \"PIAIC-BCC\";\r\n        symbol = \"BCC\";\r\n        decimals=18;\r\n        ETH_Sender=msg.sender;\r\n        Price= 0.01 ether;\r\n        owner= msg.sender;\r\n        _totalSupply= 1000000*10**decimals;\r\n        cap =_totalSupply.mul(2);\r\n        _balances[owner]=_totalSupply;\r\n        emit Transfer(address(this),owner,_totalSupply);\r\n    }\r\n    \r\n    function totalSupply() public view override returns (uint256) {\r\n        return _totalSupply;\r\n    }\r\n    \r\n    function balanceOf(address account) public view override returns (uint256) {\r\n        return _balances[account];\r\n    }\r\n    function transfer(address recipient, uint256 amount) public virtual override returns (bool) {\r\n        address sender=msg.sender;\r\n        require (sender != address(0),\"transfer from zero address\");\r\n        require (recipient !=address(0),\"transfer from zero address\");\r\n        require (_balances[sender] > amount,\"transfer account exceed balances\");\r\n        _balances[sender]=_balances[sender]-amount;\r\n        _balances[recipient]=_balances[recipient]+amount;\r\n        \r\n        emit Transfer(sender, recipient, amount);\r\n        return true;\r\n    }\r\n    function allowance(address  tokenOwner, address spender) public view virtual override returns (uint256){\r\n        return _allowances[tokenOwner][spender];\r\n        \r\n    }\r\n    function approve(address spender, uint256 amount) public virtual override returns (bool) {\r\n        address tokenOwner=msg.sender;\r\n        require (tokenOwner!=address(0), \"approve from zero address\");\r\n        require (spender!=address(0), \"approve from zero address\");\r\n        _allowances[tokenOwner][spender]=amount;\r\n        emit Approval(tokenOwner, spender, amount);\r\n        return true;\r\n     }\r\n     \r\n    function transferFrom(address tokenOwner,address recipient,uint256 amount) public virtual override returns (bool) {\r\n        \r\n         address spender=msg.sender;\r\n         uint256 _allowance = _allowances[tokenOwner][spender];\r\n         require(_allowance >= amount, \" transfer amount exceeds allowance\");\r\n         _allowance=_allowance-amount;\r\n         _balances[tokenOwner]=_balances[tokenOwner]-amount;\r\n         _balances[recipient]=_balances[recipient]+amount;\r\n         emit Transfer(tokenOwner,recipient,amount);\r\n         _allowances[tokenOwner][spender]=_allowance;\r\n         emit Approval(tokenOwner,spender,amount);\r\n         return true;\r\n    }\r\n \r\n    function mint(uint256 qty) public  returns(uint256){\r\n        require(msg.sender== owner,\"only admin can run this function\");\r\n        require (qty>0,\"Invalid amount\");\r\n        require (totalSupply().add( qty)<cap,\"Overlisted Token\");\r\n        _totalSupply += qty;\r\n        _balances[owner] +=qty;\r\n        return _totalSupply;\r\n    }\r\n    /*function _transfer(address sender,address recipient,uint256 amount) public virtual {\r\n        require(sender != address(0), \"ERC20: transfer from the zero address\");\r\n        require(recipient != address(0), \"ERC20: transfer to the zero address\");\r\n        require(block.timestamp >= _enabelTransfer[msg.sender], \"Not allowed to transfer\");\r\n\r\n        \r\n\r\n        uint256 senderBalance = _balances[sender];\r\n        require(senderBalance >= amount, \"ERC20: transfer amount exceeds balance\");\r\n        unchecked {\r\n            _balances[sender] = senderBalance - amount;\r\n        }\r\n        _balances[recipient] += amount;\r\n\r\n        emit Transfer(sender, recipient, amount);\r\n\r\n    }*/\r\n    \r\n\r\n    \r\n}\r\n\r\n\r\n\r\n\r\n\r\n\r\n\r\n\r\n\r\n\r\n\r\n",
  "sourcePath": "C:\\Users\\dell\\Documents\\GitHub\\BCCERC20\\contracts\\PIAICToken.sol",
  "compiler": {
    "name": "solc",
    "version": "0.8.0+commit.c7dfd78e.Emscripten.clang"
  },
  "schemaVersion": "3.4.3",
  "updatedAt": "2021-10-22T18:37:09.231Z",
  "devdoc": {
    "kind": "dev",
    "methods": {},
    "version": 1
  },
  "userdoc": {
    "kind": "user",
    "methods": {},
    "version": 1
  }
}