{
  "contractName": "PIAICToken",
  "abi": [
    {
      "inputs": [],
      "stateMutability": "payable",
      "type": "constructor"
    },
    {
      "anonymous": false,
      "inputs": [
        {
          "indexed": true,
          "internalType": "address",
          "name": "owner",
          "type": "address"
        },
        {
          "indexed": true,
          "internalType": "address",
          "name": "spender",
          "type": "address"
        },
        {
          "indexed": false,
          "internalType": "uint256",
          "name": "value",
          "type": "uint256"
        }
      ],
      "name": "Approval",
      "type": "event"
    },
    {
      "anonymous": false,
      "inputs": [
        {
          "indexed": true,
          "internalType": "address",
          "name": "from",
          "type": "address"
        },
        {
          "indexed": true,
          "internalType": "address",
          "name": "to",
          "type": "address"
        },
        {
          "indexed": false,
          "internalType": "uint256",
          "name": "value",
          "type": "uint256"
        }
      ],
      "name": "Transfer",
      "type": "event"
    },
    {
      "inputs": [],
      "name": "cap",
      "outputs": [
        {
          "internalType": "uint256",
          "name": "",
          "type": "uint256"
        }
      ],
      "stateMutability": "view",
      "type": "function"
    },
    {
      "inputs": [],
      "name": "decimals",
      "outputs": [
        {
          "internalType": "uint8",
          "name": "",
          "type": "uint8"
        }
      ],
      "stateMutability": "view",
      "type": "function"
    },
    {
      "inputs": [],
      "name": "name",
      "outputs": [
        {
          "internalType": "string",
          "name": "",
          "type": "string"
        }
      ],
      "stateMutability": "view",
      "type": "function"
    },
    {
      "inputs": [],
      "name": "owner",
      "outputs": [
        {
          "internalType": "address",
          "name": "",
          "type": "address"
        }
      ],
      "stateMutability": "view",
      "type": "function"
    },
    {
      "inputs": [],
      "name": "symbol",
      "outputs": [
        {
          "internalType": "string",
          "name": "",
          "type": "string"
        }
      ],
      "stateMutability": "view",
      "type": "function"
    },
    {
      "inputs": [],
      "name": "totalSupply",
      "outputs": [
        {
          "internalType": "uint256",
          "name": "",
          "type": "uint256"
        }
      ],
      "stateMutability": "view",
      "type": "function"
    },
    {
      "inputs": [
        {
          "internalType": "address",
          "name": "account",
          "type": "address"
        }
      ],
      "name": "balanceOf",
      "outputs": [
        {
          "internalType": "uint256",
          "name": "",
          "type": "uint256"
        }
      ],
      "stateMutability": "view",
      "type": "function"
    },
    {
      "inputs": [
        {
          "internalType": "address",
          "name": "recipient",
          "type": "address"
        },
        {
          "internalType": "uint256",
          "name": "amount",
          "type": "uint256"
        }
      ],
      "name": "transfer",
      "outputs": [
        {
          "internalType": "bool",
          "name": "",
          "type": "bool"
        }
      ],
      "stateMutability": "nonpayable",
      "type": "function"
    },
    {
      "inputs": [
        {
          "internalType": "address",
          "name": "tokenOwner",
          "type": "address"
        },
        {
          "internalType": "address",
          "name": "spender",
          "type": "address"
        }
      ],
      "name": "allowance",
      "outputs": [
        {
          "internalType": "uint256",
          "name": "",
          "type": "uint256"
        }
      ],
      "stateMutability": "view",
      "type": "function"
    },
    {
      "inputs": [
        {
          "internalType": "address",
          "name": "spender",
          "type": "address"
        },
        {
          "internalType": "uint256",
          "name": "amount",
          "type": "uint256"
        }
      ],
      "name": "approve",
      "outputs": [
        {
          "internalType": "bool",
          "name": "",
          "type": "bool"
        }
      ],
      "stateMutability": "nonpayable",
      "type": "function"
    },
    {
      "inputs": [
        {
          "internalType": "address",
          "name": "tokenOwner",
          "type": "address"
        },
        {
          "internalType": "address",
          "name": "recipient",
          "type": "address"
        },
        {
          "internalType": "uint256",
          "name": "amount",
          "type": "uint256"
        }
      ],
      "name": "transferFrom",
      "outputs": [
        {
          "internalType": "bool",
          "name": "",
          "type": "bool"
        }
      ],
      "stateMutability": "nonpayable",
      "type": "function"
    },
    {
      "inputs": [
        {
          "internalType": "uint256",
          "name": "qty",
          "type": "uint256"
        }
      ],
      "name": "mint",
      "outputs": [
        {
          "internalType": "uint256",
          "name": "",
          "type": "uint256"
        }
      ],
      "stateMutability": "nonpayable",
      "type": "function"
    },
    {
      "inputs": [
        {
          "internalType": "address",
          "name": "sender",
          "type": "address"
        },
        {
          "internalType": "address",
          "name": "recipient",
          "type": "address"
        },
        {
          "internalType": "uint256",
          "name": "amount",
          "type": "uint256"
        }
      ],
      "name": "_transfer",
      "outputs": [],
      "stateMutability": "nonpayable",
      "type": "function"
    }
  ],
  "bytecode": "0x60806040526040518060400160405280600981526020017f50494149432d42434300000000000000000000000000000000000000000000008152506005908051906020019062000051929190620002b3565b506040518060400160405280600381526020017f4243430000000000000000000000000000000000000000000000000000000000815250600690805190602001906200009f929190620002b3565b506012600760006101000a81548160ff021916908360ff16021790555033600a60006101000a81548173ffffffffffffffffffffffffffffffffffffffff021916908373ffffffffffffffffffffffffffffffffffffffff160217905550662386f26fc1000060088190555033600460006101000a81548173ffffffffffffffffffffffffffffffffffffffff021916908373ffffffffffffffffffffffffffffffffffffffff160217905550600760009054906101000a900460ff16600a6200016a9190620003ec565b620f42406200017a919062000529565b6003819055506200019d60026003546200029b60201b620011be1790919060201c565b600b81905550600354600080600460009054906101000a900473ffffffffffffffffffffffffffffffffffffffff1673ffffffffffffffffffffffffffffffffffffffff1673ffffffffffffffffffffffffffffffffffffffff16815260200190815260200160002081905550600460009054906101000a900473ffffffffffffffffffffffffffffffffffffffff1673ffffffffffffffffffffffffffffffffffffffff163073ffffffffffffffffffffffffffffffffffffffff167fddf252ad1be2c89b69c2b068fc378daa952ba7f163c4a11628f55a4df523b3ef6003546040516200028d919062000374565b60405180910390a362000642565b60008183620002ab919062000529565b905092915050565b828054620002c190620005a1565b90600052602060002090601f016020900481019282620002e5576000855562000331565b82601f106200030057805160ff191683800117855562000331565b8280016001018555821562000331579182015b828111156200033057825182559160200191906001019062000313565b5b50905062000340919062000344565b5090565b5b808211156200035f57600081600090555060010162000345565b5090565b6200036e816200058a565b82525050565b60006020820190506200038b600083018462000363565b92915050565b6000808291508390505b6001851115620003e357808604811115620003bb57620003ba620005d7565b5b6001851615620003cb5780820291505b8081029050620003db8562000635565b94506200039b565b94509492505050565b6000620003f9826200058a565b9150620004068362000594565b9250620004357fffffffffffffffffffffffffffffffffffffffffffffffffffffffffffffffff84846200043d565b905092915050565b6000826200044f576001905062000522565b816200045f576000905062000522565b81600181146200047857600281146200048357620004b9565b600191505062000522565b60ff841115620004985762000497620005d7565b5b8360020a915084821115620004b257620004b1620005d7565b5b5062000522565b5060208310610133831016604e8410600b8410161715620004f35782820a905083811115620004ed57620004ec620005d7565b5b62000522565b62000502848484600162000391565b925090508184048111156200051c576200051b620005d7565b5b81810290505b9392505050565b600062000536826200058a565b915062000543836200058a565b9250817fffffffffffffffffffffffffffffffffffffffffffffffffffffffffffffffff04831182151516156200057f576200057e620005d7565b5b828202905092915050565b6000819050919050565b600060ff82169050919050565b60006002820490506001821680620005ba57607f821691505b60208210811415620005d157620005d062000606565b5b50919050565b7f4e487b7100000000000000000000000000000000000000000000000000000000600052601160045260246000fd5b7f4e487b7100000000000000000000000000000000000000000000000000000000600052602260045260246000fd5b60008160011c9050919050565b611b7580620006526000396000f3fe608060405234801561001057600080fd5b50600436106100cf5760003560e01c8063355274ea1161008c57806395d89b411161006657806395d89b4114610216578063a0712d6814610234578063a9059cbb14610264578063dd62ed3e14610294576100cf565b8063355274ea146101aa57806370a08231146101c85780638da5cb5b146101f8576100cf565b806306fdde03146100d4578063095ea7b3146100f257806318160ddd1461012257806323b872dd1461014057806330e0789e14610170578063313ce5671461018c575b600080fd5b6100dc6102c4565b6040516100e99190611730565b60405180910390f35b61010c600480360381019061010791906112c8565b610352565b6040516101199190611715565b60405180910390f35b61012a610529565b60405161013791906118b2565b60405180910390f35b61015a60048036038101906101559190611279565b610533565b6040516101679190611715565b60405180910390f35b61018a60048036038101906101859190611279565b61087b565b005b610194610b68565b6040516101a191906118cd565b60405180910390f35b6101b2610b7b565b6040516101bf91906118b2565b60405180910390f35b6101e260048036038101906101dd9190611214565b610b81565b6040516101ef91906118b2565b60405180910390f35b610200610bc9565b60405161020d91906116fa565b60405180910390f35b61021e610bef565b60405161022b9190611730565b60405180910390f35b61024e60048036038101906102499190611304565b610c7d565b60405161025b91906118b2565b60405180910390f35b61027e600480360381019061027991906112c8565b610e49565b60405161028b9190611715565b60405180910390f35b6102ae60048036038101906102a9919061123d565b611137565b6040516102bb91906118b2565b60405180910390f35b600580546102d190611a70565b80601f01602080910402602001604051908101604052809291908181526020018280546102fd90611a70565b801561034a5780601f1061031f5761010080835404028352916020019161034a565b820191906000526020600020905b81548152906001019060200180831161032d57829003601f168201915b505050505081565b600080339050600073ffffffffffffffffffffffffffffffffffffffff168173ffffffffffffffffffffffffffffffffffffffff1614156103c8576040517f08c379a00000000000000000000000000000000000000000000000000000000081526004016103bf90611752565b60405180910390fd5b600073ffffffffffffffffffffffffffffffffffffffff168473ffffffffffffffffffffffffffffffffffffffff161415610438576040517f08c379a000000000000000000000000000000000000000000000000000000000815260040161042f90611752565b60405180910390fd5b82600160008373ffffffffffffffffffffffffffffffffffffffff1673ffffffffffffffffffffffffffffffffffffffff16815260200190815260200160002060008673ffffffffffffffffffffffffffffffffffffffff1673ffffffffffffffffffffffffffffffffffffffff168152602001908152602001600020819055508373ffffffffffffffffffffffffffffffffffffffff168173ffffffffffffffffffffffffffffffffffffffff167f8c5be1e5ebec7d5bd14f71427d1e84f3dd0314c0f7b2291e5b200ac8c7c3b9258560405161051691906118b2565b60405180910390a3600191505092915050565b6000600354905090565b6000803390506000600160008773ffffffffffffffffffffffffffffffffffffffff1673ffffffffffffffffffffffffffffffffffffffff16815260200190815260200160002060008373ffffffffffffffffffffffffffffffffffffffff1673ffffffffffffffffffffffffffffffffffffffff168152602001908152602001600020549050838110156105fd576040517f08c379a00000000000000000000000000000000000000000000000000000000081526004016105f4906117d2565b60405180910390fd5b838161060991906119b4565b9050836000808873ffffffffffffffffffffffffffffffffffffffff1673ffffffffffffffffffffffffffffffffffffffff1681526020019081526020016000205461065591906119b4565b6000808873ffffffffffffffffffffffffffffffffffffffff1673ffffffffffffffffffffffffffffffffffffffff16815260200190815260200160002081905550836000808773ffffffffffffffffffffffffffffffffffffffff1673ffffffffffffffffffffffffffffffffffffffff168152602001908152602001600020546106e19190611904565b6000808773ffffffffffffffffffffffffffffffffffffffff1673ffffffffffffffffffffffffffffffffffffffff168152602001908152602001600020819055508473ffffffffffffffffffffffffffffffffffffffff168673ffffffffffffffffffffffffffffffffffffffff167fddf252ad1be2c89b69c2b068fc378daa952ba7f163c4a11628f55a4df523b3ef8660405161078091906118b2565b60405180910390a380600160008873ffffffffffffffffffffffffffffffffffffffff1673ffffffffffffffffffffffffffffffffffffffff16815260200190815260200160002060008473ffffffffffffffffffffffffffffffffffffffff1673ffffffffffffffffffffffffffffffffffffffff168152602001908152602001600020819055508173ffffffffffffffffffffffffffffffffffffffff168673ffffffffffffffffffffffffffffffffffffffff167f8c5be1e5ebec7d5bd14f71427d1e84f3dd0314c0f7b2291e5b200ac8c7c3b9258660405161086691906118b2565b60405180910390a36001925050509392505050565b600073ffffffffffffffffffffffffffffffffffffffff168373ffffffffffffffffffffffffffffffffffffffff1614156108eb576040517f08c379a00000000000000000000000000000000000000000000000000000000081526004016108e290611872565b60405180910390fd5b600073ffffffffffffffffffffffffffffffffffffffff168273ffffffffffffffffffffffffffffffffffffffff16141561095b576040517f08c379a000000000000000000000000000000000000000000000000000000000815260040161095290611772565b60405180910390fd5b600260003373ffffffffffffffffffffffffffffffffffffffff1673ffffffffffffffffffffffffffffffffffffffff168152602001908152602001600020544210156109dd576040517f08c379a00000000000000000000000000000000000000000000000000000000081526004016109d490611852565b60405180910390fd5b60008060008573ffffffffffffffffffffffffffffffffffffffff1673ffffffffffffffffffffffffffffffffffffffff16815260200190815260200160002054905081811015610a63576040517f08c379a0000000000000000000000000000000000000000000000000000000008152600401610a5a90611812565b60405180910390fd5b8181036000808673ffffffffffffffffffffffffffffffffffffffff1673ffffffffffffffffffffffffffffffffffffffff16815260200190815260200160002081905550816000808573ffffffffffffffffffffffffffffffffffffffff1673ffffffffffffffffffffffffffffffffffffffff1681526020019081526020016000206000828254610af69190611904565b925050819055508273ffffffffffffffffffffffffffffffffffffffff168473ffffffffffffffffffffffffffffffffffffffff167fddf252ad1be2c89b69c2b068fc378daa952ba7f163c4a11628f55a4df523b3ef84604051610b5a91906118b2565b60405180910390a350505050565b600760009054906101000a900460ff1681565b600b5481565b60008060008373ffffffffffffffffffffffffffffffffffffffff1673ffffffffffffffffffffffffffffffffffffffff168152602001908152602001600020549050919050565b600460009054906101000a900473ffffffffffffffffffffffffffffffffffffffff1681565b60068054610bfc90611a70565b80601f0160208091040260200160405190810160405280929190818152602001828054610c2890611a70565b8015610c755780601f10610c4a57610100808354040283529160200191610c75565b820191906000526020600020905b815481529060010190602001808311610c5857829003601f168201915b505050505081565b6000600460009054906101000a900473ffffffffffffffffffffffffffffffffffffffff1673ffffffffffffffffffffffffffffffffffffffff163373ffffffffffffffffffffffffffffffffffffffff1614610d0f576040517f08c379a0000000000000000000000000000000000000000000000000000000008152600401610d0690611832565b60405180910390fd5b60008211610d52576040517f08c379a0000000000000000000000000000000000000000000000000000000008152600401610d49906117b2565b60405180910390fd5b600b54610d6f83610d61610529565b6111d490919063ffffffff16565b10610daf576040517f08c379a0000000000000000000000000000000000000000000000000000000008152600401610da6906117f2565b60405180910390fd5b8160036000828254610dc19190611904565b9250508190555081600080600460009054906101000a900473ffffffffffffffffffffffffffffffffffffffff1673ffffffffffffffffffffffffffffffffffffffff1673ffffffffffffffffffffffffffffffffffffffff1681526020019081526020016000206000828254610e389190611904565b925050819055506003549050919050565b600080339050600073ffffffffffffffffffffffffffffffffffffffff168173ffffffffffffffffffffffffffffffffffffffff161415610ebf576040517f08c379a0000000000000000000000000000000000000000000000000000000008152600401610eb690611792565b60405180910390fd5b600073ffffffffffffffffffffffffffffffffffffffff168473ffffffffffffffffffffffffffffffffffffffff161415610f2f576040517f08c379a0000000000000000000000000000000000000000000000000000000008152600401610f2690611792565b60405180910390fd5b826000808373ffffffffffffffffffffffffffffffffffffffff1673ffffffffffffffffffffffffffffffffffffffff1681526020019081526020016000205411610faf576040517f08c379a0000000000000000000000000000000000000000000000000000000008152600401610fa690611892565b60405180910390fd5b826000808373ffffffffffffffffffffffffffffffffffffffff1673ffffffffffffffffffffffffffffffffffffffff16815260200190815260200160002054610ff991906119b4565b6000808373ffffffffffffffffffffffffffffffffffffffff1673ffffffffffffffffffffffffffffffffffffffff16815260200190815260200160002081905550826000808673ffffffffffffffffffffffffffffffffffffffff1673ffffffffffffffffffffffffffffffffffffffff168152602001908152602001600020546110859190611904565b6000808673ffffffffffffffffffffffffffffffffffffffff1673ffffffffffffffffffffffffffffffffffffffff168152602001908152602001600020819055508373ffffffffffffffffffffffffffffffffffffffff168173ffffffffffffffffffffffffffffffffffffffff167fddf252ad1be2c89b69c2b068fc378daa952ba7f163c4a11628f55a4df523b3ef8560405161112491906118b2565b60405180910390a3600191505092915050565b6000600160008473ffffffffffffffffffffffffffffffffffffffff1673ffffffffffffffffffffffffffffffffffffffff16815260200190815260200160002060008373ffffffffffffffffffffffffffffffffffffffff1673ffffffffffffffffffffffffffffffffffffffff16815260200190815260200160002054905092915050565b600081836111cc919061195a565b905092915050565b600081836111e29190611904565b905092915050565b6000813590506111f981611b11565b92915050565b60008135905061120e81611b28565b92915050565b60006020828403121561122657600080fd5b6000611234848285016111ea565b91505092915050565b6000806040838503121561125057600080fd5b600061125e858286016111ea565b925050602061126f858286016111ea565b9150509250929050565b60008060006060848603121561128e57600080fd5b600061129c868287016111ea565b93505060206112ad868287016111ea565b92505060406112be868287016111ff565b9150509250925092565b600080604083850312156112db57600080fd5b60006112e9858286016111ea565b92505060206112fa858286016111ff565b9150509250929050565b60006020828403121561131657600080fd5b6000611324848285016111ff565b91505092915050565b611336816119e8565b82525050565b611345816119fa565b82525050565b6000611356826118e8565b61136081856118f3565b9350611370818560208601611a3d565b61137981611b00565b840191505092915050565b60006113916019836118f3565b91507f617070726f76652066726f6d207a65726f2061646472657373000000000000006000830152602082019050919050565b60006113d16023836118f3565b91507f45524332303a207472616e7366657220746f20746865207a65726f206164647260008301527f65737300000000000000000000000000000000000000000000000000000000006020830152604082019050919050565b6000611437601a836118f3565b91507f7472616e736665722066726f6d207a65726f20616464726573730000000000006000830152602082019050919050565b6000611477600e836118f3565b91507f496e76616c696420616d6f756e740000000000000000000000000000000000006000830152602082019050919050565b60006114b76022836118f3565b91507f207472616e7366657220616d6f756e74206578636565647320616c6c6f77616e60008301527f63650000000000000000000000000000000000000000000000000000000000006020830152604082019050919050565b600061151d6010836118f3565b91507f4f7665726c697374656420546f6b656e000000000000000000000000000000006000830152602082019050919050565b600061155d6026836118f3565b91507f45524332303a207472616e7366657220616d6f756e742065786365656473206260008301527f616c616e636500000000000000000000000000000000000000000000000000006020830152604082019050919050565b60006115c36020836118f3565b91507f6f6e6c792061646d696e2063616e2072756e20746869732066756e6374696f6e6000830152602082019050919050565b60006116036017836118f3565b91507f4e6f7420616c6c6f77656420746f207472616e736665720000000000000000006000830152602082019050919050565b60006116436025836118f3565b91507f45524332303a207472616e736665722066726f6d20746865207a65726f20616460008301527f64726573730000000000000000000000000000000000000000000000000000006020830152604082019050919050565b60006116a96020836118f3565b91507f7472616e73666572206163636f756e74206578636565642062616c616e6365736000830152602082019050919050565b6116e581611a26565b82525050565b6116f481611a30565b82525050565b600060208201905061170f600083018461132d565b92915050565b600060208201905061172a600083018461133c565b92915050565b6000602082019050818103600083015261174a818461134b565b905092915050565b6000602082019050818103600083015261176b81611384565b9050919050565b6000602082019050818103600083015261178b816113c4565b9050919050565b600060208201905081810360008301526117ab8161142a565b9050919050565b600060208201905081810360008301526117cb8161146a565b9050919050565b600060208201905081810360008301526117eb816114aa565b9050919050565b6000602082019050818103600083015261180b81611510565b9050919050565b6000602082019050818103600083015261182b81611550565b9050919050565b6000602082019050818103600083015261184b816115b6565b9050919050565b6000602082019050818103600083015261186b816115f6565b9050919050565b6000602082019050818103600083015261188b81611636565b9050919050565b600060208201905081810360008301526118ab8161169c565b9050919050565b60006020820190506118c760008301846116dc565b92915050565b60006020820190506118e260008301846116eb565b92915050565b600081519050919050565b600082825260208201905092915050565b600061190f82611a26565b915061191a83611a26565b9250827fffffffffffffffffffffffffffffffffffffffffffffffffffffffffffffffff0382111561194f5761194e611aa2565b5b828201905092915050565b600061196582611a26565b915061197083611a26565b9250817fffffffffffffffffffffffffffffffffffffffffffffffffffffffffffffffff04831182151516156119a9576119a8611aa2565b5b828202905092915050565b60006119bf82611a26565b91506119ca83611a26565b9250828210156119dd576119dc611aa2565b5b828203905092915050565b60006119f382611a06565b9050919050565b60008115159050919050565b600073ffffffffffffffffffffffffffffffffffffffff82169050919050565b6000819050919050565b600060ff82169050919050565b60005b83811015611a5b578082015181840152602081019050611a40565b83811115611a6a576000848401525b50505050565b60006002820490506001821680611a8857607f821691505b60208210811415611a9c57611a9b611ad1565b5b50919050565b7f4e487b7100000000000000000000000000000000000000000000000000000000600052601160045260246000fd5b7f4e487b7100000000000000000000000000000000000000000000000000000000600052602260045260246000fd5b6000601f19601f8301169050919050565b611b1a816119e8565b8114611b2557600080fd5b50565b611b3181611a26565b8114611b3c57600080fd5b5056fea2646970667358221220da041c15aa18f144b9bcf5fc071941682886b87da04dbc8b9605ea49eced50b064736f6c63430008000033",
  "immutableReferences": {},
  "source": "pragma solidity ^0.8.0;\r\nimport \"./SafeMath.sol\";\r\ninterface IERC20 {\r\n\r\n    function totalSupply() external view returns (uint256);\r\n\r\n\r\n    function balanceOf(address account) external view returns (uint256);\r\n\r\n    function transfer(address recipient, uint256 amount) external returns (bool);\r\n\r\n    function allowance(address owner, address spender) external view returns (uint256);\r\n\r\n\r\n    function approve(address spender, uint256 amount) external returns (bool);\r\n\r\n\r\n    function transferFrom( address sender, address recipient, uint256 amount ) external returns (bool);\r\n\r\n\r\n    event Transfer(address indexed from, address indexed to, uint256 value);\r\n    event Approval(address indexed owner, address indexed spender, uint256 value);\r\n\r\n}\r\ncontract PIAICToken is IERC20{\r\n    mapping(address => uint256) private _balances;\r\n//           owner             spender    allowance\r\n    mapping(address => mapping(address => uint256)) private _allowances;\r\n    mapping(address => uint256) private _enabelTransfer;\r\n\r\n    uint256 private _totalSupply;\r\n    address public owner;\r\n\r\n    string  public name;\r\n    string public symbol;\r\n    uint8 public decimals;\r\n    uint256 private Price;\r\n    uint256 private Send_token;\r\n    address private ETH_Sender;\r\n    uint public cap;\r\n    using SafeMath for uint;\r\n\r\n    \r\n    constructor() public payable {\r\n        name = \"PIAIC-BCC\";\r\n        symbol = \"BCC\";\r\n        decimals=18;\r\n        ETH_Sender=msg.sender;\r\n        Price= 0.01 ether;\r\n        owner= msg.sender;\r\n        _totalSupply= 1000000*10**decimals;\r\n        cap =_totalSupply.mul(2);\r\n        _balances[owner]=_totalSupply;\r\n        emit Transfer(address(this),owner,_totalSupply);\r\n    }\r\n    \r\n    function totalSupply() public view override returns (uint256) {\r\n        return _totalSupply;\r\n    }\r\n    \r\n    function balanceOf(address account) public view override returns (uint256) {\r\n        return _balances[account];\r\n    }\r\n    function transfer(address recipient, uint256 amount) public virtual override returns (bool) {\r\n        address sender=msg.sender;\r\n        require (sender != address(0),\"transfer from zero address\");\r\n        require (recipient !=address(0),\"transfer from zero address\");\r\n        require (_balances[sender] > amount,\"transfer account exceed balances\");\r\n        _balances[sender]=_balances[sender]-amount;\r\n        _balances[recipient]=_balances[recipient]+amount;\r\n        \r\n        emit Transfer(sender, recipient, amount);\r\n        return true;\r\n    }\r\n    function allowance(address  tokenOwner, address spender) public view virtual override returns (uint256){\r\n        return _allowances[tokenOwner][spender];\r\n        \r\n    }\r\n    function approve(address spender, uint256 amount) public virtual override returns (bool) {\r\n        address tokenOwner=msg.sender;\r\n        require (tokenOwner!=address(0), \"approve from zero address\");\r\n        require (spender!=address(0), \"approve from zero address\");\r\n        _allowances[tokenOwner][spender]=amount;\r\n        emit Approval(tokenOwner, spender, amount);\r\n        return true;\r\n     }\r\n     \r\n    function transferFrom(address tokenOwner,address recipient,uint256 amount) public virtual override returns (bool) {\r\n        \r\n         address spender=msg.sender;\r\n         uint256 _allowance = _allowances[tokenOwner][spender];\r\n         require(_allowance >= amount, \" transfer amount exceeds allowance\");\r\n         _allowance=_allowance-amount;\r\n         _balances[tokenOwner]=_balances[tokenOwner]-amount;\r\n         _balances[recipient]=_balances[recipient]+amount;\r\n         emit Transfer(tokenOwner,recipient,amount);\r\n         _allowances[tokenOwner][spender]=_allowance;\r\n         emit Approval(tokenOwner,spender,amount);\r\n         return true;\r\n    }\r\n \r\n    function mint(uint256 qty) public  returns(uint256){\r\n        require(msg.sender== owner,\"only admin can run this function\");\r\n        require (qty>0,\"Invalid amount\");\r\n        require (totalSupply().add( qty)<cap,\"Overlisted Token\");\r\n        _totalSupply += qty;\r\n        _balances[owner] +=qty;\r\n        return _totalSupply;\r\n    }\r\n    function _transfer(address sender,address recipient,uint256 amount) public virtual {\r\n        require(sender != address(0), \"ERC20: transfer from the zero address\");\r\n        require(recipient != address(0), \"ERC20: transfer to the zero address\");\r\n        require(block.timestamp >= _enabelTransfer[msg.sender], \"Not allowed to transfer\");\r\n\r\n        \r\n\r\n        uint256 senderBalance = _balances[sender];\r\n        require(senderBalance >= amount, \"ERC20: transfer amount exceeds balance\");\r\n        unchecked {\r\n            _balances[sender] = senderBalance - amount;\r\n        }\r\n        _balances[recipient] += amount;\r\n\r\n        emit Transfer(sender, recipient, amount);\r\n\r\n    }\r\n    \r\n\r\n    \r\n}\r\n\r\n\r\n\r\n\r\n\r\n\r\n\r\n\r\n\r\n\r\n\r\n",
  "sourcePath": "C:\\Users\\dell\\Documents\\GitHub\\BCCERC20\\contracts\\Token.sol",
  "compiler": {
    "name": "solc",
    "version": "0.8.0+commit.c7dfd78e.Emscripten.clang"
  },
  "schemaVersion": "3.4.3",
  "updatedAt": "2021-10-22T18:18:49.249Z",
  "devdoc": {
    "kind": "dev",
    "methods": {},
    "version": 1
  },
  "userdoc": {
    "kind": "user",
    "methods": {},
    "version": 1
  }
}